:100000000C943E040C943A140C9413140C9466044F
:100010000C9466040C9466040C94B9140C94660455
:100020000C9466040C9466040C9466040C946604A8
:100030000C9466040C9466040C9466040C94660498
:100040000C94C9130C9466040C9487140C946114DA
:100050000C9466040C9466040C9466040C94660478
:100060000C94AA120C94660420656E61626C65643F
:100070002E0054656D7065726174757265206D65D2
:1000800061737572656D656E742069730053656E7A
:10009000736F72206D6179206E6F742062652072BB
:1000A000656C6961626C6500200030002C20776906
:1000B0007468206164647265737365732E2E2E00FC
:1000C00054656D70657261747572652053656E73E9
:1000D0006F727320666F756E64203D200074656DCD
:1000E000705F656E61626C65203D200070756C7399
:1000F0006520706572696F64203D200070756C73B7
:100100006573203D2000204D487A002C2042616E0E
:100110006420002C204E6F6465200047726F75705C
:10012000200053657474696E67733A00005EBCE228
:10013000613FDD83C29C7E20A3FD1F41009D23BE45
:1001400046DB65F88C11AF32CA57E9744C6F6164B5
:10015000656420454550524F4D20636F6E66696758
:1001600000536B657463682077696C6C206E6F77E1
:100170002072657374617274207573696E67206490
:10018000656661756C7420636F6E6669672E0052D8
:100190006573657474696E672E2E2E000A00202820
:1001A00068696464656E292E002062797465730045
:1001B0002C20446174612073697A653A20002053D1
:1001C00069676E61747572653A20004E6F206461D4
:1001D000746120626C6F636B20666F756E64202D96
:1001E00020454550524F4D206170706561727320FB
:1001F000746F20626520666F726D6174746564202F
:10020000746F204F454D205374616E646172642099
:1002100062757420756E757365642E000A00206225
:10022000797465732C206E6F7420666F726D6174C3
:1002300074656420746F204F454D205374616E6463
:100240006172640053697A653A2000446F6E652ECE
:10025000204E657720636F6E6669672073617665EF
:100260006420746F20454550524F4D002000436F6D
:100270006E74696E75696E672E2E2E00456D6F6EF9
:1002800054485F56322056004E6F64652000206D42
:10029000730050756C7365733A200047726F757008
:1002A0002000204D487A00456E746572696E6720A3
:1002B00053657474696E6773206D6F64652E2E2E9E
:1002C0000000000000240027002A00000000002594
:1002D0000028002B000000000800020100000304B9
:1002E0000700000000000000000A417661696C61AF
:1002F000626C6520636F6D6D616E64733A0A2020D5
:100300006C2020202020202020202D206C69737458
:10031000207468652073657474696E67730A2020A1
:10032000722020202020202020202D207265737430
:100330006F726520736B65746368206465666175B0
:100340006C74730A2020732020202020202020207D
:100350002D20736176652073657474696E677320F0
:10036000746F20454550524F4D0A202076202020A2
:100370002020202020202D2073686F77206669724E
:100380006D776172652076657273696F6E0A2020E1
:10039000782020202020202020202D2065786974BE
:1003A0002C206C6F636B20616E6420636F6E7469C8
:1003B0006E75650A20203F2020202020202020204C
:1003C0002D2073686F772074686973207465787462
:1003D00020616761696E0A0A2020773C783E202000
:1003E000202020202D207475726E2052464D2057FB
:1003F0006972656C657373202F2053657269616C37
:10040000206461746120626F7468206F66663A20B0
:1004100078203D20302C20776972656C65737320DD
:100420006F6E6C793A20783D312C2073657269616A
:100430006C206F6E6C793A20783D32206F722062AA
:100440006F74683A2078203D20330A2020623C6E89
:100450003E2020202020202D2073657420722E66DF
:100460002E2062616E64206E203D20612073696ED3
:10047000676C65206E756D6572616C3A2034203D45
:10048000203433334D487A2C2038203D20383638FC
:100490004D487A2C2039203D203931354D487A207D
:1004A000286D617920726571756972652068617265
:1004B0006477617265206368616E6765290A202030
:1004C000703C6E6E3E20202020202D20736574200D
:1004D00074686520722E662E20706F7765722E20EC
:1004E0006E6E202D20616E20696E746567657220C6
:1004F00030202D20333120726570726573656E7403
:10050000696E67202D31382064426D20746F202B76
:1005100031332064426D2E2044656661756C743AF7
:1005200020323520282B372064426D290A2020678D
:100530003C6E6E6E3E202020202D20736574204E70
:100540006574776F726B2047726F757020206E6EC6
:100550006E202D20616E20696E746567657220289B
:100560004F454D2064656661756C74203D203231C5
:1005700030290A20206E3C6E6E3E20202020202D47
:1005800020736574206E6F6465204944206E3D20A1
:10059000616E20696E746567657220287374616E80
:1005A00064617264206E6F64652069647320617297
:1005B0006520312E2E3630290A0A20206D3C783EE7
:1005C000203C79793E202D206D6574657220707510
:1005D0006C736520636F756E74696E673A0A2020CC
:1005E0002020202020202020202020202078203D96
:1005F000203020666F72204F46462C2078203D2008
:100600003120666F72204F4E2C203C79793E203D80
:1006100020616E20696E746567657220666F722056
:100620007468652070756C7365206D696E696D7591
:100630006D20706572696F6420696E206D732E2065
:100640002879206973206E6F74206E656564656417
:100650002C206F722069676E6F7265642077686501
:100660006E2078203D2030290A20207430203C79EB
:100670003E202020202D207475726E2065787465D0
:10068000726E616C2074656D7065726174757265EF
:10069000206D6561737572656D656E74206F6E2077
:1006A0006F72206F66663A0A2020202020202020CA
:1006B000202020202D2079203D203020666F7220C0
:1006C0004F46462C2079203D203120666F72204F06
:1006D0004E0A2020743C783E203C79793E203C79BB
:1006E000793E203C79793E203C79793E203C7979ED
:1006F0003E203C79793E203C79793E203C79793E18
:100700000A2020202020202020202020202D2063AF
:1007100068616E676520616E2065787465726E61D0
:100720006C2074656D706572617475726520736597
:100730006E736F7227732061646472657373206FC8
:100740007220706F736974696F6E3A0A20202020DE
:1007500020202020202020202D2078203D206120D6
:1007600073696E676C65206E756D6572616C3A2099
:1007700074686520706F736974696F6E206F66208E
:100780007468652073656E736F7220696E2074687B
:1007900065206C6973742028312D6261736564294A
:1007A0000A2020202020202020202020202D2079F9
:1007B00079203D20382068657861646563696D61E2
:1007C0006C20627974657320726570726573656EF2
:1007D00074696E67207468652073656E736F722725
:1007E0007320616464726573730A202020202020C6
:1007F000202020202020202020652E672E2020323F
:100800003820383120343320333120303720303015
:100810002030302044390A20202020202020202091
:100820002020202020204E2E422E2053656E736FF4
:1008300072732043414E4E4F5420626520616464C0
:1008400065642E0A000A000000000023002600292B
:100850000004040404040404040202020202020369
:100860000303030303010204081020408001020473
:1008700008102001020408102000CA1411241FBE11
:10088000CFEFD8E0DEBFCDBF24E0A0EBB2E001C0E7
:100890001D92A63EB207E1F712E0A0E0B1E0E6EB60
:1008A000F5E402C005900D92A03BB107D9F714E022
:1008B000CEE3D4E004C02197FE010E94B421CD33E1
:1008C000D107C9F70E94F2150C94D9220C940000AC
:1008D0008CB58C7F8CBD8DB58E7F8DBD089520919C
:1008E0003F03260F3327331F21323105ECF42091CB
:1008F000AC03FC0190E080E0243069F082E00895D0
:10090000A0913F032191AC01435E5C4FA40FB52F32
:10091000B11D2C930196861798F380913F03680FC1
:1009200060933F0380E0089581E00895089508955D
:100930000895E091650380916403E81730F4F0E0D6
:10094000EA59FC4F808190E008958FEF9FEF089562
:1009500090916503809164032FEF3FEF981748F45F
:10096000E92FF0E0EA59FC4F208130E09F5F90933F
:100970006503C90108958091640390916503891B03
:10098000990B0895CF92DF92EF92FF920F931F93EE
:10099000CF93DF937C01CB018A012091B203222304
:1009A00089F0EB016B01C40ED51ECC15DD0569F095
:1009B0006991D701ED91FC910190F081E02DC70183
:1009C0000995F3CF642F0E946F04C801DF91CF9186
:1009D0001F910F91FF90EF90DF90CF900895CF93EC
:1009E000DF931F92CDB7DEB769832091B203222334
:1009F000F9F02091D503203258F021E030E0FC01DD
:100A00003383228390E080E00F90DF91CF910895AF
:100A10008091B303E82FF0E0EC54FC4F9981908370
:100A20008F5F8093B3038093D50381E090E0ECCF98
:100A300061E0CE0101960E946F04F7CF833081F010
:100A400028F4813099F08230A9F008958730A9F018
:100A50008830C9F08430B1F4809180008F7D03C06C
:100A6000809180008F7780938000089584B58F7780
:100A700084BD089584B58F7DFBCF8091B0008F77C2
:100A80008093B00008958091B0008F7DF9CFCF930F
:100A9000DF93282F30E0F901EB52FD4F8491F901EB
:100AA000EB59F74FD491F901EF5AF74FC491CC238A
:100AB000A1F081110E941E05EC2FF0E0EE0FFF1F48
:100AC000E95BF74FA591B491EC91ED2381E090E0C3
:100AD00009F480E0DF91CF91089580E090E0FACFB3
:100AE0001F93CF93DF93282F30E0F901EB52FD4F96
:100AF0008491F901EB59F74FD491F901EF5AF74F6F
:100B0000C491CC23A9F0162F81110E941E05EC2F51
:100B1000F0E0EE0FFF1FE553FD4FA591B4918FB7A5
:100B2000F894EC91111108C0D095DE23DC938FBFAF
:100B3000DF91CF911F910895DE2BF8CF1092AC0377
:100B400081E08093AB031092860361E082E10E9412
:100B5000700561E083E10E947005E9EBF0E08081BF
:100B60008E7F808380818D7F808388E48093B8002E
:100B700085E48093BC000895CF93DF9391E0909338
:100B80001C038823B9F0C091B800D091BA008091BD
:100B9000BC008A7B8093BC0060E082E10E9470050B
:100BA00060E083E10E9470050E949E05D093BA0028
:100BB000C093B800DF91CF910895CF93DF9390E079
:100BC000FC01EB59F74F24918F5A974FFC01849108
:100BD0008823C9F090E0880F991FFC01EF53FD4F67
:100BE000A591B491FC01E553FD4FC591D4916111DC
:100BF0000DC09FB7F8948C91209582238C938881A7
:100C0000282328839FBFDF91CF910895623051F44C
:100C10009FB7F8943C91822F809583238C93E88131
:100C20002E2BEFCF8FB7F894EC912E2B2C938FBFF8
:100C3000EACF3FB7F8948091180390911903A091DF
:100C40001A03B0911B0326B5A89B05C02F3F19F0CE
:100C50000196A11DB11D3FBFBA2FA92F982F88273C
:100C6000BC01CD01620F711D811D911D42E0660F17
:100C7000771F881F991F4A95D1F708958F929F92E9
:100C8000AF92BF92CF92DF92EF92FF920F931F939A
:100C9000CF93DF93D091D503D13208F0D7C0182F6E
:100CA000C091D4030E9419066B017C018091AC03B2
:100CB00081116BC082E08093AC031093AB038FEF84
:100CC0008093AA031092A903D093A803A4EBB3E0E6
:100CD000E8E8F3E080E0D81391C010928703809198
:100CE0008703CC0FC82BC093870380918603813084
:100CF00009F088C0109286030E9419066B017C01DE
:100D0000809187038093BB008091AE039091AF03E5
:100D1000A091B003B091B103892B8A2B8B2BA1F04A
:100D20000E9419060091AE031091AF032091B00309
:100D30003091B1036C197D098E099F0906171707B9
:100D40002807390708F442C08091BC0083FDD8CF42
:100D500085EC8093BC000E9419066B017C01809198
:100D6000AC03823009F450C08091AA038F3F09F48C
:100D70006FC08091AA03803209F46CC08091AA03ED
:100D8000803309F469C084E026C08091AE0390915D
:100D9000AF03A091B003B091B103892B8A2B8B2BA9
:100DA00009F484CF0E9419068090AE039090AF039F
:100DB000A090B003B090B1036C197D098E099F0912
:100DC00086169706A806B90608F070CF8091AD0385
:100DD0000E94BC0585E01092B3031092D5031092D7
:100DE000B203DF91CF911F910F91FF90EF90DF90B1
:100DF000CF90BF90AF909F908F9008959D919193C9
:100E00008F5F69CF85EEA5CF8091AE039091AF0340
:100E1000A091B003B091B103892B8A2B8B2B09F4DD
:100E20009ECF0E9419060091AE031091AF0320914E
:100E3000B0033091B1036C197D098E099F09061723
:100E400017072807390708F08ACFC0CF81E0C3CF42
:100E500080E0C1CF82E0BFCF83E0BDCF0F931F936F
:100E6000CF93DF93EC018B0181E08093B20380E4A8
:100E70008093D4031092B3031092D503688182EE5D
:100E800093E00E94EF040130110529F0698182EEA0
:100E900093E00E94EF0481E0DF91CF911F910F91C9
:100EA0000C943E068F929F92AF92BF92CF92DF92A8
:100EB000EF92FF926B017C010E9419064B015C01CD
:100EC000C114D104E104F104B9F00E9419066819B3
:100ED00079098A099B09683E73408105910580F371
:100EE00021E0C21AD108E108F10888EE880E83E0FB
:100EF000981EA11CB11CE4CFFF90EF90DF90CF9023
:100F0000BF90AF909F908F9008952FB7F894609105
:100F100014037091150380911603909117032FBF4E
:100F200008950895AF92BF92CF92DF92EF92FF9211
:100F30000F931F93CF93DF936C017B018B01040F01
:100F4000151FEB015E01AE18BF08C017D10759F09D
:100F50006991D601ED91FC910190F081E02DC601DF
:100F60000995892B79F7C501DF91CF911F910F91D9
:100F7000FF90EF90DF90CF90BF90AF900895FC016D
:100F8000538D448D252F30E0842F90E0821B930BEE
:100F9000541710F0CF96089501970895FC01918D94
:100FA000828D981761F0A28DAE0FBF2FB11D5D9697
:100FB0008C91928D9F5F9F73928F90E008958FEF39
:100FC0009FEF08958F929F92AF92BF92EF92FF9200
:100FD0000F931F93CF93DF937B018C01D0E0C0E090
:100FE0000E9485076093F6037093F7038093F803DC
:100FF0009093F9038EEE93E00E94CE0797FF27C0EF
:101000000E9485078090F6039090F703A090F80364
:10101000B090F903681979098A099B098090F20355
:101020009090F303A090F403B090F5036815790550
:101030008A059B05F8F2CE01DF91CF911F910F91A8
:10104000FF90EF90BF90AF909F908F900895F80120
:1010500081938F012196EC16FD0611F6ECCFFC0171
:10106000918D828D981731F0828DE80FF11D858D5D
:1010700090E008958FEF9FEF08950F931F930E94C4
:1010800085076093F6037093F7038093F8039093BA
:10109000F9038EEE93E00E942F0897FF1DC00E9477
:1010A00085070091F6031091F7032091F803309122
:1010B000F903601B710B820B930B0091F2031091EB
:1010C000F3032091F4033091F50360177107820751
:1010D0009307F8F28FEF9FEF1F910F910895CF9232
:1010E000DF92EF92FF92CF930E943D08FC0197FDA3
:1010F0004EC08D32910521F0C0970A9708F040C08C
:10110000C12CD12C7601C0E0E130F105D1F0ED32F7
:10111000F105D9F1CF01C0970A9798F4AAE0B0E0A1
:10112000A70196010E9450216F01FF0FEE08FF08F2
:10113000C60ED71EE81EF91E80E3C81AD108E108C2
:10114000F1088EEE93E00E94CE070E943D08FC015C
:10115000C0970A97C8F2E130F105B1F2CC2341F013
:10116000F094E094D094C094C11CD11CE11CF11CFB
:10117000C701B601CF91FF90EF90DF90CF90089517
:101180008EEE93E00E94CE07AFCFC1E0DACFC12C44
:10119000D12C7601EDCFFC01918D228D892F90E02D
:1011A000805C9F4F821B91098F73992708958EEE63
:1011B00093E00E94CB0821E0892B09F420E0822FE4
:1011C000089580E090E0892B29F00E94D7088111D2
:1011D0000C9400000895FC01A48DA80FB92FB11D37
:1011E000A35ABF4F2C91848D90E001968F7399275D
:1011F000848FA689B7892C93A089B1898C9183703B
:1012000080648C93938D848D981306C00288F38933
:10121000E02D80818F7D80830895EF92FF920F9360
:101220001F93CF93DF93EC0181E0888F9B8D8C8D92
:1012300098131AC0E889F989808185FF15C09FB786
:10124000F894EE89FF896083E889F9898081837049
:10125000806480839FBF81E090E0DF91CF911F91F8
:101260000F91FF90EF900895F62E0B8D10E00F5F19
:101270001F4F0F731127E02E8C8D8E110CC00FB6EF
:1012800007FCFACFE889F989808185FFF5CFCE0187
:101290000E94EB08F1CFEB8DEC0FFD2FF11DE35A0F
:1012A000FF4FF0829FB7F8940B8FEA89FB8980810A
:1012B0008062CFCF0F931F93CF93DF938C01D0E049
:1012C000C0E0F801EC0FFD1F6491662341F08EEE43
:1012D00093E00E940D09892B11F02196F2CFCE01E7
:1012E000DF91CF911F910F910895682F8EEE93E0BB
:1012F0000C940D091F93CF93DF93C9EED2E0FE014A
:101300001491112351F01A3019F48DE00E947509DF
:10131000812F0E9475092196F2CFDF91CF911F9105
:101320000895CF93DF93EC01888D8823B9F0AA89C3
:10133000BB89E889F9898C9185FD03C0808186FD90
:101340000DC00FB607FCF7CF8C9185FFF2CF8081DF
:1013500085FFEDCFCE010E94EB08E9CFDF91CF9161
:10136000089583FF04C098E2892787FD16C09091F5
:10137000600098709064892B909160009093FB02BC
:1013800094B7977F94BFF894909160009861909380
:10139000600080936000789408958091FB02F0CF04
:1013A000CF92DF92EF92FF921F93CF93DF936C0166
:1013B000EC0138E0E32EF12CC031D10508F43FC038
:1013C000CE0110E08032910530F01F5F193019F026
:1013D00096958795F7CF1092FC02812F0E94B10954
:1013E00090917A0080917A008F7780937A0083B70A
:1013F000817F846083BFF89483B7816083BF85B7A2
:10140000806685BF85B78F79806485BF789488951D
:1014100083B78E7F83BF90937A008FEF0E94B109CC
:10142000C70102C0880F991F1A95E2F7C81BD90B94
:101430002091FC02222311F1C81BD90BBDCF81E002
:101440004091140350911503609116037091170396
:10145000CC1ADD0A4C0D5D1D611D711D40931403F6
:10146000509315036093160370931703DF91CF9188
:101470001F91FF90EF90DF90CF90089580E0E0CF34
:1014800090E080E00895DC0180E0615090F09D9153
:101490009827E92FEF70F0E0E45DFE4F2491E92FEB
:1014A000E295EF70F0E0E45CFE4FE491822F8E272E
:1014B000ECCF0895DC012C911196ED91FC91F894FC
:1014C0008181822B81839281322F30959323928365
:1014D00087E090E00197F1F781818323818383E2A4
:1014E00090E00197F1F790817894EFECF0E031977C
:1014F000F1F7922381E009F480E00895FC019081E6
:101500000180F281E02D292F209560FF14C0F8940E
:101510008281822382838181892B8183A3E2B0E04F
:101520001197F1F78281982B9283789487ED90E060
:101530000197F1F70895F894828182238283818153
:10154000892B8183AFEFB0E01197F1F78281982B5F
:10155000928378948FE090E0EBCFDF92EF92FF924E
:101560000F931F93CF93DF93EC01D62EE42E08E068
:1015700010E0FF24F39461E08D2D8F2109F460E0E9
:10158000CE010E947E0AFF0C01501109A1F7E11063
:1015900010C0F894E981FA8191818881809589232E
:1015A0008183E981FA819281888180958923828370
:1015B0007894DF91CF911F910F91FF90EF90DF9082
:1015C0000895EF92FF920F931F93CF93DF938C01B7
:1015D0007B0140E065E50E94AD0AE70188E0E80E86
:1015E000F11C699140E0C8010E94AD0ACE15DF05EB
:1015F000C1F7DF91CF911F910F91FF90EF90089568
:10160000FC0190810180F281E02DF8948181292FE5
:1016100020958223818378943DE743E050E0315068
:1016200029F1DA011197F1F780818923C1F3F89448
:101630008281822382838181892B81837894ABE7A5
:10164000B7E01197F1F7F894818182238183A3E1B8
:10165000B1E01197F1F78081982381E009F080E0F3
:101660007894E3E6F6E03197F1F7089580E0089585
:101670006F927F928F929F92AF92BF92CF92DF92A2
:10168000EF92FF920F931F93CF93DF938C01EB01A7
:101690008091A0049091A1040E94000B882309F47A
:1016A0003FC0B8018091A0049091A1040E94E10A7A
:1016B00040E06EEB8091A0049091A1040E94AD0ADD
:1016C0007E016E0189E0C80ED11C8E01A090A0049D
:1016D000B090A10488E0882E912C712C662463942C
:1016E000C5010E945A0A81117628660CE1E08E1A23
:1016F0009108B1F7F80171928F01CE16DF0631F72C
:101700008091A0049091A1040E94000B813041F4CB
:10171000F70181917F01811105C0E017F107C1F741
:1017200090E008C068E0CE010E94430A91E028855D
:101730002813F6CF892FDF91CF911F910F91FF9042
:10174000EF90DF90CF90BF90AF909F908F907F9061
:101750006F900895CF93DF93CDB7DEB729970FB67B
:10176000F894DEBF0FBECDBFBE016F5F7F4F0E94FA
:10177000380B882331F08D818F33A9F020F48F311D
:10178000A1F080E007C08F3521F08F37D1F78CE0D2
:1017900001C08BE029960FB6F894DEBF0FBECDBF17
:1017A000DF91CF9108958AE0F5CF89E0F3CF81E012
:1017B0008093120380910A0390910B03A0910C0374
:1017C000B0910D030196A11DB11D80930A03909362
:1017D0000B03A0930C03B0930D0308951092DE0346
:1017E0001092DF031092E0031092E10310920A03BB
:1017F00010920B0310920C0310920D0380ED92E0F7
:10180000A0E0B0E080930E0390930F03A093100329
:10181000B09311031092120387ED9BE090930701A0
:1018200080930601E9E6F0E080818C608083E99A8C
:101830000895BF92CF92DF92EF92FF920F931F9382
:10184000CF93DF932AE7E22EF12CF701B0800BE76C
:1018500010E0F801C080CCE7D0E0D8800E94D00929
:10186000F701B082F801C082D882DF91CF911F9139
:101870000F91FF90EF90DF90CF90BF900895F89474
:101880008CB5837F8CBD8CB58F7D8CBD0E94680428
:1018900060E08AE00C9470058EBD00000DB407FE78
:1018A000FDCF8EB50895CF93C82F0E943F0C8C2F8B
:1018B0000E944C0C80E00E944C0CC82F61E08AE032
:1018C0000E94700578948C2FCF910895CF93DF9369
:1018D000D82FC62F0E943F0C8D2F80680E944C0C81
:1018E0008C2F0E944C0C61E08AE00E947005789475
:1018F000DF91CF910895EF92FF920F931F93CF93B3
:10190000DF937C018C01C3E0D0E0CE010E943A213C
:10191000F80181938F012196C730D105B1F7C70136
:10192000DF91CF911F910F91FF90EF9008950F934A
:101930001F93CF93DF9300D000D0CDB7DEB78C01DB
:1019400090E080E00E943A218F34D1F481E090E071
:101950000E943A218534A1F482E090E00E943A216D
:101960008D3471F481E00115110559F0CE01019615
:101970000E947B0C81E02B813C812017310709F00C
:1019800080E00F900F900F900F90DF91CF911F91FB
:101990000F910895FC0101900020E9F73197AF0104
:1019A000481B590BBC018EEE93E00C94920782E326
:1019B00091E00C94CA0CCF93DF930E945A09EC017A
:1019C0000E94D70C8C0F9D1FDF91CF910895009737
:1019D00011F00C94CA0C90E080E008950C94E70C90
:1019E0008F929F92AF92BF920F931F93CF93DF93EB
:1019F000CDB7DEB7A1970FB6F894DEBF0FBECDBF4F
:101A000019A2423008F44AE08E010F5D1F4F842E68
:101A1000912CB12CA12CA50194010E947E21E62FCE
:101A2000B901CA01EA30D4F4E05DD801EE938D012A
:101A3000232B242B252B79F7CD010E94E70CA196AF
:101A40000FB6F894DEBF0FBECDBFDF91CF911F91CF
:101A50000F91BF90AF909F908F900895E95CE5CF74
:101A6000CF93DF930E94E70CEC010E94D70C8C0F00
:101A70009D1FDF91CF910895CF92DF92EF92FF9259
:101A80000F931F93CF93DF938C017B01D0E0C0E0D5
:101A9000CE15DF056CF56801CC0EDD1EC6010E9477
:101AA0003A21803118F480E30E9475092196C6011D
:101AB0000E943A21682F70E090E080E040E10E94AF
:101AC000F00C8DED91E00E94EE0CCE01877099270D
:101AD000892B21F48DED91E00E94EE0CCE018F70E8
:101AE0009927892BA9F685E498E00E945A09D0CF5E
:101AF000DF91CF911F910F91FF90EF90DF90CF90EA
:101B00000895CF92DF92EF92FF92CF93DF936C0113
:101B1000990FEE08FF08F7FE17C08DE20E947509C5
:101B2000EC0166277727CB016C197D098E099F0987
:101B30004AE00E94F00C8C0F9D1FDF91CF91FF9027
:101B4000EF90DF90CF9008954AE0C701B601DF9192
:101B5000CF91FF90EF90DF90CF900C94F00CCF934B
:101B6000DF930E94810DEC010E94D70C8C0F9D1F0A
:101B7000DF91CF910895EF92FF920F931F93CF9330
:101B8000DF9300D01F92CDB7DEB7082FF62E122FAD
:101B900069ED423019F04330F9F464EE87E00E94B9
:101BA000660C60E088E00E94660C60E089E00E94BC
:101BB000660C0E94850781E00E94530C682F637EAB
:101BC00081E00E94660C88E20E94530C807551F0FF
:101BD00080E00E94530CF7CF6CE687E00E94660C11
:101BE00060E8E0CF602F80E30E94660C60E085E251
:101BF0000E94660C1B821A8220E1029FC001112400
:101C00000827E12C8F2D8F73F82E8B818430E8F517
:101C100088E20E94530C87FDF8CF9B81913079F0C8
:101C200030F09230F1F0933001F16AEA04C08B8118
:101C30008F5F8B836EE080E00E94660CE6CF0983A5
:101C40002981998184E0289F900111249227907C1A
:101C500099836A8189816F73682B8B818F5F8B83F6
:101C6000EACF6A81607C6F29F8CF81E08E0DEE2D7E
:101C7000F0E0EA52FC4F6081E82E8C30E1F69B8167
:101C80009F5F9B838CE0E82ED6CF612F6F716068D9
:101C900081E10E94660C81E00E94530C837E682FD4
:101CA0006C6081E00E94660C88E20E94530C83FD08
:101CB00007C061E070E080E090E00E945207F4CF3E
:101CC00081E00E94530C682F637E81E00E94660CC5
:101CD00081E00F900F900F90DF91CF911F910F91A6
:101CE000FF90EF9008954F925F926F927F928F9244
:101CF0009F92AF92BF92EF92FF920F931F93CF9359
:101D0000DF937C018B010E9419064B015C018091DD
:101D1000AC03811165C0C02F81E08093AC03809338
:101D2000AB039FEF9093AA031092A903900F909397
:101D3000A80380938703809187038068809387033B
:101D400080918603813009F091C0109286030E9431
:101D500019064B015C01809187038093BB00809141
:101D6000AE039091AF03A091B003B091B103892B62
:101D70008A2B8B2BA1F00E9419064090AE03509045
:101D8000AF036090B0037090B103681979098A09B4
:101D90009B09461657066806790608F442C08091EA
:101DA000BC0083FDD8CF85EC8093BC000E9419064F
:101DB0004B015C018091AC03813009F459C08091E2
:101DC000A9038C1710F4C091A903A8E8B3E0E6E6D4
:101DD000F3E080E08C1751F19D9191938F5FFACFE2
:101DE0008091AE039091AF03A091B003B091B10385
:101DF000892B8A2B8B2B09F48ACF0E9419064090DD
:101E0000AE035090AF036090B0037090B1036819B7
:101E100079098A099B09461657066806790608F06B
:101E200076CF8091AD030E94BC05C0E0109265039F
:101E3000C0936403E7010E0D1F1D82EE93E00E9424
:101E4000A8048993C017D107C1F781E090E0DF9122
:101E5000CF911F910F91FF90EF90BF90AF909F9007
:101E60008F907F906F905F904F90089585EE9CCFFC
:101E70008091AE039091AF03A091B003B091B103F4
:101E8000892B8A2B8B2B09F495CF0E941906409041
:101E9000AE035090AF036090B0037090B103681927
:101EA00079098A099B09461657066806790608F0DB
:101EB00081CFB7CFFF920F931F93CF93DF93CDB70F
:101EC000DEB728970FB6F894DEBF0FBECDBF85EE04
:101ED000888761E070E0CE0108960E942E0762E0DC
:101EE00070E0CE0101960E94730E29813A8132275B
:101EF00023273227A4EDB0E30E945B218C01085513
:101F0000124080EE8F8361E070E0CE0107960E9460
:101F10002E0762E070E0CE0101960E94730E2981C7
:101F20003A81322723273227A4EAB4E40E945B21B6
:101F3000BC016D547241F62E7A836983072E000C22
:101F4000880B990B0E941D2026E636E646EE5FE3DD
:101F50000E947C2020E030E048E455E40E94BB2150
:101F60000E9499227C836B831E830D832F2D3A81DF
:101F7000462F5C81602F7E8180E090E028960FB62E
:101F8000F894DEBF0FBECDBFDF91CF911F910F91AF
:101F9000FF900895BF92CF92DF92EF92FF920F933E
:101FA0001F93CF93DF93EC01B62EC72E8D85811141
:101FB00005C0CE010E94000B81110EC01B861D863C
:101FC0001C8680E0DF91CF911F910F91FF90EF90E1
:101FD000DF90CF90BF90089540E060EFCE010E9467
:101FE000AD0A01E0E12CD12C11E0CE010E945A0A89
:101FF000F82ECE010E945A0A91E0F91218C08130E1
:1020000099F51134D8F2DB86D11002C081E08D87BA
:102010008B81882399F22396EB2DFC2DCF01089616
:1020200029912193E817F907D9F781E0CBCFEE2D5D
:10203000F0E0F8120FC08B851817A0F4DE01AE0F88
:10204000BF1F13968C91802379F4F12C193008F47A
:102050001C87D12EEC0FFD1F8381902F9095892333
:1020600083830AC08113F1CFFE01EE0DF11D838140
:10207000802B8383FF24F3946F2DCE010E947E0A70
:102080001F5F000F11F4E39401E087E08E1508F064
:10209000ACCFB7CF4F925F926F927F928F929F9209
:1020A000AF92BF92CF92DF92EF92FF920F931F9366
:1020B000CF936B017C01742EAC019B010E94D42252
:1020C000882399F085E391E0CF911F910F91FF90C4
:1020D000EF90DF90CF90BF90AF909F908F907F90C8
:1020E0006F905F904F900C94CA0C46015701E89492
:1020F000B7F82FEF3FEF4FE75FE7C501B4010E944C
:10210000D42281110DC02FEF3FEF4FE75FE7C501EC
:10211000B4010E94162018161CF489E391E0D4CF74
:102120002FEF3FEF4FE75FE4C701B6010E94CF22D8
:1021300018161CF48DE391E0C7CF2FEF3FEF4FE768
:102140005FECC701B6010E94162087FDF3CF20E0A7
:1021500030E0A901C701B6010E94162010E000E09E
:1021600087FF08C08DE20E9475098C01F7FAF09490
:10217000F7F8F094C0E060E070E080E09FE37C1648
:1021800041F020E030E040E251E40E942722CF5F9E
:10219000F6CFA70196010E94BB212B013C010E94B2
:1021A000A0224B015C014AE00E94F00C7C01E00E91
:1021B000F11ECC23B1F1C501B4010E941B209B018B
:1021C000AC01C301B2010E94BA214B015C018EE255
:1021D0000E947509E80EF91EC15018F120E030E0A8
:1021E00040E251E4C501B4010E947C202B013C0176
:1021F0000E94A0224B01B12CA12C4AE0C501B401E0
:102200000E94F00CE80EF91EC501B4010E941B20CB
:102210009B01AC01C301B2010E94BA214B015C01D8
:10222000DBCFC701CF911F910F91FF90EF90DF900F
:10223000CF90BF90AF909F908F907F906F905F9066
:102240004F900895CF92DF92EF92FF920F931F93DA
:10225000CF93DF938091BF048F738093BC049091E0
:102260000503209106032111F5C0992309F4F6C056
:102270008F5F8093BC0482E291E00E94DB0C8BE1D3
:1022800091E00E945A096091BE0470E090E080E005
:102290004AE00E94F00C83E191E00E945A096091AB
:1022A000BC0470E090E080E04AE00E94F00C8BE01B
:1022B00091E00E945A098091BD04813009F486C0E2
:1022C000823009F486C0833009F086C083E993E048
:1022D0000E94810D86E091E00E94DB0C8CEF90E083
:1022E0000E945A098091C20490E00E94AF0D8CEECA
:1022F00090E00E945A098091C3049091C4040E9406
:10230000AF0D8DED90E00E945A098091C50490E0D8
:102310000E94AF0D80EC90E00E945A098091080362
:10232000909109030E94810D88E691E00E94EE0CD5
:1023300084E090E00E94810D809108039091090350
:10234000892B09F44CC08CEA90E00E94DB0CCDEBA9
:10235000D4E0F12CE12C8091080390910903E81658
:10236000F906ECF58E01075F1F4F6E0181E1C80E83
:10237000D11CF80181918F01803120F48AEA90E02C
:102380000E945A09F8013197608170E090E080E086
:1023900040E10E94F00C88EA90E00E945A090C1576
:1023A0001D0539F78F85833021F48DE890E00E9478
:1023B0005A090E94D70C65E070E080E090E00E942E
:1023C0005207FFEFEF1AFF0A2896C5CF81EB91E085
:1023D0007FCF84E693E07CCF90E080E079CF0E94CD
:1023E000D70C82E790E00E945A098091C5048823A7
:1023F00041F184E391E00E94EE0C88E690E00E94B7
:10240000DB0C0E94D70C65E070E080E090E00E9459
:1024100052078091C00480FF17C086E491E00E94BB
:10242000300D8091C00481FF12C083E591E0DF91FF
:10243000CF911F910F91FF90EF90DF90CF900C9470
:10244000300D81E491E0D7CF8CE491E0E8CF8DE5C9
:1024500091E0EDCF91110FCF8E5F0BCF8D5F09CF44
:1024600085ED8093BC008091AE039091AF03A09165
:10247000B003B091B1030796A11DB11D23E0B6953D
:10248000A795979587952A95D1F72091BC0024FDB3
:1024900003C01092AC0308954091AE035091AF0376
:1024A0006091B0037091B103452B462B472B69F324
:1024B0000097A105B10541F025E32A95F1F7000049
:1024C0000197A109B109E1CF8091AD030C94BC053E
:1024D000FF920F931F93CF93DF93EC01F62E0881A9
:1024E0001981C8010E943A21F81621F06F2DC80108
:1024F0000E944221CE01DF91CF911F910F91FF9059
:102500000895CF92DF92EF92FF920F931F93CF9394
:10251000DF9300D0CDB7DEB76C017C0103E010E0A3
:102520001A830983F70161917F01CE0101960E9410
:1025300068120F5F1F4F0730110591F7C6010F900A
:102540000F90DF91CF911F910F91FF90EF90DF904F
:10255000CF9008951F920F920FB60F9211242F93D0
:102560003F934F935F936F937F938F939F93AF931B
:10257000BF93EF93FF938091B900887F803609F471
:102580004AC0F0F5883209F4A7C018F5803109F483
:102590009BC0B8F4882309F4F9C0883009F494C0CA
:1025A000FF91EF91BF91AF919F918F917F916F912B
:1025B0005F914F913F912F910F900FBE0F901F9001
:1025C0001895883109F488C0803251F78093AA03A6
:1025D00014C0803409F49DC040F48033B9F38833CB
:1025E000F9F68093AA0385ECB0C0803509F485C064
:1025F000883509F496C0883499F60E943012D0CFFD
:10260000883909F48CC038F5883729F050F48836B9
:1026100011F0803729F683E08093AC0310926303B6
:1026200057C0883809F47BC0803919F0803809F028
:10263000B7CF80916303803208F071C0E0916303EB
:1026400081E08E0F809363038091BB00F0E0ED5B2F
:10265000FC4F80833DC0803B39F0E0F4803A09F4C0
:1026600079C0883A09F09CCF84E08093AC03109243
:10267000400310923F03E0913D03F0913E03099522
:1026800080913F0381110FC081E080933F0310923E
:102690001D0309C0803C09F4A6CF883C09F4A3CFF0
:1026A000883B09F07DCFE091400381E08E0F80935D
:1026B0004003F0E0E35EFC4F80818093BB0090918B
:1026C000400380913F0329C0809187038093BB0022
:1026D00085EC8093BC0064CF9091A9038091A803FE
:1026E000981758F5E091A90381E08E0F8093A90314
:1026F000F0E0E857FC4F8081E9CFE091A90381E049
:102700008E0F8093A9038091BB00F0E0E857FC4F47
:1027100080839091A9038091A8039817C8F285E857
:10272000D8CFE091A90381E08E0F8093A903809117
:10273000BB00F0E0E857FC4F80838091AB03811130
:102740005CCF81E08093860384EA8093BC00109282
:10275000AC0326CF85EC8093BC001092AC03809133
:102760006303803230F4E0916303F0E0ED5BFC4FF3
:1027700010826091630370E0E0914103F0914203A5
:1027800083E493E00995109263030ACF1092AA03A1
:1027900034CF1F920F920FB60F9211242F933F93B5
:1027A0008F939F93AF93BF938091140390911503E0
:1027B000A0911603B09117033091130323E0230F68
:1027C0002D3758F50196A11DB11D20931303809359
:1027D000140390931503A0931603B09317038091ED
:1027E000180390911903A0911A03B0911B0301964D
:1027F000A11DB11D8093180390931903A0931A0390
:10280000B0931B03BF91AF919F918F913F912F91F7
:102810000F900FBE0F901F90189526E8230F029679
:10282000A11DB11DD2CF1F920F920FB60F9211248E
:102830002F933F934F935F936F937F938F939F93C8
:10284000AF93BF93EF93FF93E0910601F0910701DF
:102850000995FF91EF91BF91AF919F918F917F91DA
:102860006F915F914F913F912F910F900FBE0F90FD
:102870001F9018951F920F920FB60F9211242F934D
:102880003F934F935F936F937F938F939F93AF93F8
:10289000BF93EF93FF93E0910401F0910501099537
:1028A000FF91EF91BF91AF919F918F917F916F9128
:1028B0005F914F913F912F910F900FBE0F901F90FE
:1028C00018951F920F920FB60F9211242F933F93DA
:1028D0004F935F936F937F938F939F93AF93BF9328
:1028E000EF93FF938EEE93E00E94EB08FF91EF9140
:1028F000BF91AF919F918F917F916F915F914F9118
:102900003F912F910F900FBE0F901F9018951F921F
:102910000F920FB60F9211242F938F939F93EF93E3
:10292000FF93E091FE03F091FF038081E0910404A6
:10293000F091050482FD1BC09081809107048F5F98
:102940008F7320910804821741F0E0910704F0E0B2
:10295000E251FC4F958F80930704FF91EF919F9177
:102960008F912F910F900FBE0F901F90189580811F
:10297000F4CF1F920F920FB60F9211248F93809174
:10298000FC028F5F8093FC028F910F900FBE0F901F
:102990001F901895EF92FF920F931F93CF93DF93A1
:1029A00000D0CDB7DEB71092E5031092E40388EEB5
:1029B00093E0A0E0B0E08093E6039093E703A09358
:1029C000E803B093E90322E131E03093E30320937D
:1029D000E2031092F1031092F0038093F2039093BC
:1029E000F303A093F403B093F50384E291E0909392
:1029F000EF038093EE0385EC90E09093FB038093CC
:102A0000FA0384EC90E09093FD038093FC0380EC48
:102A100090E09093FF038093FE0381EC90E090930D
:102A200001048093000482EC90E09093030480936F
:102A3000020486EC90E090930504809304041092C5
:102A40000704109208041092090410920A048EEFF1
:102A500090E0909392048093910485E190E09093AC
:102A60008E0480938D0484E290E090938C04809394
:102A70008B048BE091E090939404809393048FEF08
:102A800093E0909396048093950410929004109292
:102A90008F040BE011E0C8010E943A21780195E112
:102AA000E90EF11C8F3F69F11093900400938F049D
:102AB0008FEFE81683E0F80654F5C7010E943A212B
:102AC0008F3FD9F00BE011E080919504909196042E
:102AD00008171907E4F41A8309836FEFCE010196F2
:102AE0000E9468121092900410928F0480918D04BD
:102AF00090918E04080F191FE7CF95E1E90EF11CA4
:102B0000D7CF87018FEFE81683E0F80621F611E0B2
:102B10001093BD0482ED8093BE0487E18093BF04CF
:102B20001093C00499E19093C1041093C20422E36E
:102B300030E03093C4042093C3041093C504809301
:102B4000BC0460E081E10E94DD05E6E7F8E0E49185
:102B5000E093AE04E2E6F8E0E491F0E0EE0FFF1F50
:102B6000E95BF74F859194919093B0048093AF0403
:102B70001092B9041092BB041092BA041092B804D7
:102B80001092B7041092B6041092B5041092B404D7
:102B90001092B3041092B2041092B1041092AD04DA
:102BA0001092AC04109298048EEA94E09093A104E1
:102BB0008093A00410929E0410929F041092970498
:102BC00089E080939A0410939B0410939C041093C3
:102BD0009D040F900F90DF91CF911F910F91FF9067
:102BE000EF900895CF93DF93CDB7DEB72B970FB655
:102BF000F894DEBF0FBECDBF789484B5826084BDEB
:102C000084B5816084BD85B5826085BD85B58160F0
:102C100085BD80916E00816080936E00109281006E
:102C20008091810082608093810080918100816029
:102C300080938100809180008160809380008091EA
:102C4000B10084608093B1008091B0008160809376
:102C5000B00080917A00846080937A0080917A003D
:102C6000826080937A0080917A00816080937A00FC
:102C700080917A00806880937A001092C10061E0B0
:102C800089E00E94DD0561E089E00E94700562E054
:102C900086E00E94DD0562E080E10E94DD0562E0E1
:102CA0008EE00E94DD0562E084E10E94DD0562E0C5
:102CB00085E10E94DD0562E084E00E94DD0562E0BE
:102CC00087E00E94DD0562E088E00E94DD0587E084
:102CD0000E94470521E0892B09F420E02093060398
:102CE00088E00E94470521E0892B09F420E0209329
:102CF0000503E091FE03F091FF0382E08083E09101
:102D0000FA03F091FB031082E091FC03F091FD03C4
:102D100080E1808310920604E0910204F0910304A4
:102D200086E08083E0910004F0910104808180615D
:102D30008083E0910004F0910104808188608083A9
:102D4000E0910004F0910104808180688083E0912B
:102D50000004F091010480818F7D80838DE691E0F5
:102D60000E94300D83E891E00E94EE0C80E991E032
:102D70000E94E70C64E670E080E090E00E94520759
:102D800086E09FEF0E94970C882329F1CE010196DF
:102D90000E947B0CE980FA80F7FC1DC0470123E00C
:102DA000820E911C7DEBC72E74E0D72E07E010E059
:102DB000C8010E943A21F60181936F010F5F1F4FF6
:102DC00008151905A8F3F4E0EF16F10421F08CE4DE
:102DD00091E00E94DB0C8091C004882309F4D7C0E5
:102DE0000E94221188E991E00E94300D61E08AE0A2
:102DF0000E94700561E08AE00E94DD051FB7F8942B
:102E00008091FD02811127C0EBE5F8E08491EFE6A7
:102E1000F8E09491E82FF0E0EE0FFF1FEF53FD4F25
:102E2000A591B491EC91E92321F461E08AE00E943C
:102E3000700561E08AE00E94DD058CB580618CBD83
:102E40008CB580648CBD61E08DE00E94DD0561E0A1
:102E50008BE00E94DD058091FD028F5F8093FD0273
:102E60001FBF8CB58F7D8CBD8CB5837F8CBD0E94C0
:102E700068046AEA8FE20E94660C8FE20E94530C9B
:102E80008A3AB9F765E58FE20E94660C8FE20E94EC
:102E9000530C8535B9F764E081E00E94660C60E070
:102EA00082E00E94660C62E083E00E94660C6AE8A1
:102EB00084E00E94660C62E085E00E94660C61EE90
:102EC00086E00E94660C60E28BE00E94660C6AE479
:102ED00089E10E94660C62E48AE10E94660C69E95D
:102EE00081E10E94660C6CE28EE10E94660C60E853
:102EF00085E20E94660C67E086E20E94660C68EC40
:102F000089E20E94660C65E08DE20E94660C68E82A
:102F10008EE20E94660C6DE28FE20E94660C60ED0C
:102F200087E30E94660C62E488E30E94660C6FE807
:102F30008CE30E94660C62E18DE30E94660C60E205
:102F40008FE60E94660C62E081E70E94660C84EACC
:102F500091E00E94300D0AE010E01093D703009337
:102F6000D6032091C1044091BD046091BC0481E06E
:102F70000E94BB0D64E670E080E090E00E94520782
:102F80000150110950F71092D7031092D60361E057
:102F900085E00E94DD0560E081E00E94DD0562E0E1
:102FA00083E00E94DD0580EB91E00E94300D82E11C
:102FB0000E944705019709F041C0109265031092E5
:102FC00064031092B3031092D5030E949E0586E914
:102FD00094E090933E0380933D0387E994E09093BF
:102FE00042038093410311E01093B20380E4809385
:102FF000D40381E00E943E06882359F162E070E02C
:1030000082E091E00E942E0768E070E0CE01019618
:103010000E94730E62E070E080E091E00E942E0753
:1030200066E070E0CE0101960E94730E098110E007
:103030000115110589F41092070306C083E10E946F
:103040004705019709F4B9CF8DEB91E00E94300D4F
:1030500041C01093FE02D2CF81E0809307030E940B
:103060005A0F29833A834B835C836D837E838AEC7A
:1030700091E00E94EE0CC8010E94AF0D8FED91E02F
:103080000E94EE0C69817A81072E000C880B990B47
:103090000E941D2020E030E048EC52E40E942722EC
:1030A00042E00E944A100E94D70C8AEE91E00E94F2
:1030B000EE0C6D817E8190E080E00E941B2020E07C
:1030C00030E048EC52E40E94272242E00E944A107D
:1030D0000E94D70C61E085E00E94700562E370E019
:1030E00080E090E00E945207E091A004F091A104DA
:1030F000138615861486128611861086178216820C
:1031000015821482138210929E0410929F0411E083
:10311000BE016F5F7F4F8091A0049091A1040E9437
:10312000CA0F882309F45FC067E0CE0101960E94B0
:10313000430A98858913ECCF80919E048F5F80931A
:103140009E048981883231F008F044C0803111F04A
:103150008232F1F680919F048F5F80939F0480916B
:103160009704811128C08091A0049091A1040E942D
:10317000000BBE016F5F7F4F8091A0049091A1046E
:103180000E94E10A40E064EB8091A0049091A104C8
:103190000E94AD0A8091A0049091A1040E945A0A55
:1031A000082F8091A0049091A1040E94000B0111AE
:1031B00002C0109397048981803199F0CE01019665
:1031C0000E94AA0B90919A04981708F0A1CF8093BF
:1031D0009A049ECF8B3309F4BDCF823409F098CF87
:1031E000B9CF8CE0EFCF10929B042091C604EDEB99
:1031F000F4E084E090E0211128C080919E0490E0EA
:103200009093090380930803059734F084E090E0DD
:10321000909309038093080310E0612F70E0809180
:1032200008039091090368177907FCF453E0660FCF
:10323000771F5A95E1F76A537B4F8EEA94E00E941C
:10324000CA0F882391F01F5FE8CF482F392F0097CE
:1032500009F487C051A1019738975832B1F74093CC
:103260000803309309032832B9F660E085E00E9434
:1032700070058091080390910903009709F476C0C6
:103280000E94810D87EF91E00E94300D84E391E070
:103290000E94300D80E092E00E94300D83E292E0C7
:1032A0000E94300D64E670E080E090E00E945207DA
:1032B00086E692E00E94300D0E948507609301032C
:1032C00070930203809303039093040311E00E9420
:1032D0008507AB01BC01009100038091010390912F
:1032E0000203A0910303B091040388579C4EAF4F93
:1032F000BF4F481759076A077B0708F042C08EEE98
:1033000093E00E94CB08892B11F30111E0CF65E017
:1033100070E0CE0101960E94E207059781F5898150
:103320008B3269F58A818B3251F58C818D3039F57C
:103330008D818A3021F58B818B32D9F41093000373
:1033400082E08093FF02882311F287EA92E00E94D4
:10335000DB0C8091FF02823009F0B9CF0E947A091C
:10336000B6CF10920903109208037DCF85EF91E04C
:103370008BCF833721F41093000381E0E2CF80E00C
:10338000E0CF60900003662009F4DCC28EEE93E08B
:103390000E94CB08892BA9F38EEE93E00E94CE0702
:1033A0008E36E9F06CF5873609F47EC08CF48F33E5
:1033B00009F4C3C2823609F452C08EEE93E00E9433
:1033C000CB08892BF1F28EEE93E00E94CE07F5CF69
:1033D0008C3609F47CC00CF07DC0893671F70E94F0
:1033E0006F08662309F43AC1603408F06FE3609314
:1033F000BF0488E892E00E945A096091BF045EC051
:10340000843709F409C2CCF4823709F429C10CF0DD
:103410004FC1803791F60E946F086F716093C104AD
:1034200084E792E00E94EE0C8091C1048251990BD6
:103430000E94810D89E792E00EC1873709F44FC2DF
:10344000883709F462C2863709F0B7CF8CE792E07B
:103450000E945A0980E991E00E94E70CAECF0E94D9
:103460006F086430D9F0683099F0693059F01092E3
:10347000BD0490E080E00E94810D82EA92E00E940B
:10348000DB0C9BCF83E08093BD0483E993E0F3CF13
:1034900082E08093BD0484E693E0EDCF81E08093E9
:1034A000BD0481EB91E0E7CF0E946F086093BE04FA
:1034B0008BE992E00E945A096091BE0470E090E0AE
:1034C00080E04AE00E94F00C0E94D70C76CF0E9468
:1034D000221173CF0E946F088B010E943D08FC01EE
:1034E00097FD87C08D32910559F0C0970A9740F03B
:1034F000EE32F10529F08EEE93E00E94CE07EDCF7B
:10350000312C712C812C912C40E8A42E4FE3B42E49
:10351000C12CD12C7601E130F10549F1ED32F105F4
:10352000C9F1EE32F105C1F1CF01C0970A97F8F465
:10353000AAE0B0E0A70196010E9450216F01FF0FA1
:10354000EE08FF08C60ED71EE81EF91E40E3C41A97
:10355000D108E108F108332051F02DEC3CEC4CECA3
:103560005DE3C501B4010E947C204B015C018EEE3D
:1035700093E00E94CE070E943D08FC01C0970A9785
:1035800050F2EE32F10551F4332029F27720E1F0C8
:10359000372C0AC0762CEBCF362CE9CFE130F10581
:1035A00009F4B9CF772041F0F094E094D094C0941E
:1035B000C11CD11CE11CF11CC701B6010E941D20D9
:1035C0002B013C01332051F0C701B6010E941D20A0
:1035D000A50194010E947C202B013C018EEE93E01A
:1035E0000E94CB08892B49F08EEE93E00E94CE0713
:1035F000F5CF412C512C3201F1CF0115110589F085
:1036000001301105C1F082E992E00E945A09012BB4
:1036100001F142E0C301B2010E944A108EE892E03B
:103620002ECF1092C204E99881E997E090930701A8
:1036300080930601E8CF81E08093C204C301B20108
:103640000E9499227093C4046093C3040E94EE0BFD
:10365000DACF8FE491E00E94300DAFCE61E0C7CEAB
:103660008FE891E00E94DB0C86E09FEF0E94970CB0
:10367000882389F0CE0101960E947B0C89819A8172
:1036800097FD09C09195819591099A838983CE010F
:1036900001960E94811281E691E00E94DB0C68ECA9
:1036A00070E080E090E00E9452070C94000085CE0C
:1036B0008EE792E00E94300D86E09FEF0E94970C0B
:1036C000811128C01A8219826FE4CE0101960E94EE
:1036D000681281E090E09A83898365E4CE010196C7
:1036E0000E946812E2E0F0E0FA83E9836DE4CE0123
:1036F00001960E94681203E010E01A8309836FEFBD
:10370000CE0101960E9468120F5F1F4F0115F4E071
:103710001F0799F74DE250E05A83498386E09FEFF7
:103720009C838B83CE0101960E9481123DEBE32E98
:1037300034E0F32E07E010E0F70161917F011B8771
:103740000A87CE010A960E9468120F5F1F4F00334E
:10375000110591F790E080E00E94970C81111AC04A
:1037600084E492E00E945A094AE060E074E080E05C
:1037700090E00E94F00C8EE192E00E94DB0C60E091
:1037800074E090E080E00E943C0D8CE192E00E94A9
:103790005A090CC0CE0101960E947B0C8B819C8142
:1037A000019649F48BEC91E00E94DB0C0E94D70C4F
:1037B0008BE492E064CE8EEB91E00E945A096B811B
:1037C0007C8190E080E04AE00E94F00C09811A813F
:1037D00017FF03C01195019511090450110980EBE1
:1037E00091E00E945A09C8010E94810D89EA91E086
:1037F0000E945A0989819A8197FF04C08EE991E05D
:103800000E945A090E94D70CB80187E090E00E94FC
:103810003C0D8CE991E0BBCF0E946F086B01CB019E
:10382000892B59F40E946F0821E0672B682B692BC4
:1038300009F420E02093C504C0CD6530710508F07F
:10384000BCCD61E070E0CE010A960E94E20710E074
:1038500000E061E070E0CE010A960E94E207892B49
:1038600049F1083038F58A85803221F08D3011F029
:103870008A3051F4E1E0F0E0EC0FFD1FE00FF11DA4
:1038800010830F5F10E0E5CF1295107F90ED980F39
:103890009A3030F09FEB980F963020F499EC980F07
:1038A000190FD7CF9FE9980F963010F499EAF7CF08
:1038B00090E0F6CFDE01119623E0CC0CDD1C2A95BA
:1038C000E1F781E090E02D91F601E80FF91FE35454
:1038D000FB4F2083019689309105A9F76ECD0E9498
:1038E0006F086093C00486E491E060FD02C08CE440
:1038F00091E00E94300D8091C00481FF03C083E5F8
:1039000091E0A9CE8DE591E0A6CE8EE692E00E94F0
:10391000DB0C8EEE93E00E94CB08892B29F08EEE13
:1039200093E00E94CE07F5CF109200036AE070E0AA
:1039300080E090E00E94520740CD0E947A098CE618
:1039400092E09DCD0E94EE0B80B7806880BF809191
:10395000C00481FD05C08091640082608093640092
:10396000809164008068809364008091640084602A
:1039700080936400809164008860809364008091EB
:103980000703882321F060E089E00E9470059FE52D
:10399000F92E00E010E08BE0E82E809112038823DE
:1039A00041F08091C3049091C4040E94D009109208
:1039B000120380E590E00E94D009813099F4809153
:1039C0000E0390910F03A0911003B0911103019683
:1039D000A11DB11D80930E0390930F03A0931003BC
:1039E000B093110380910E0390910F03A0911003E7
:1039F000B0911103823B9240A105B10570F4809112
:103A00000A0390910B03A0910C03B0910D0384362F
:103A10009105A105B10508F4FDC28091C204882377
:103A200031F1F89440910A0350910B0360910C031B
:103A300070910D038091DE039091DF03A091E0036C
:103A4000B091E103840F951FA61FB71F8093DE037B
:103A50009093DF03A093E003B093E10310920A0375
:103A600010920B0310920C0310920D037894809126
:103A7000080390910903892B09F4D9C18091C504E9
:103A8000882309F4D4C161E085E00E94700582E3D7
:103A900090E00E94190CBDEBCB2EB4E0DB2E912CF4
:103AA000812C8091080390910903881699060CF0E7
:103AB000E1C0360149E0640E711CF6018185803158
:103AC00009F46BC0BE016F5F7F4FC3010E94380BCA
:103AD000882309F462C08D818F3509F45EC0FD82B0
:103AE0008091A0049091A1040E94000BB3018091E9
:103AF000A0049091A1040E94E10A40E06EE480914C
:103B0000A0049091A1040E94AD0A40E06B818091D5
:103B1000A0049091A1040E94AD0A40E06C818091C4
:103B2000A0049091A1040E94AD0AF6018185803124
:103B300041F040E06D818091A0049091A1040E9429
:103B4000AD0A8091A0049091A10420919D042223AC
:103B500011F10E94000B882301F1B3018091A004B0
:103B60009091A1040E94E10A4091970468E4809139
:103B7000A0049091A1040E94AD0A80919704811144
:103B80004DC064E170E080E090E00E9452078091B7
:103B9000A0049091A1040E94000BE0929A048091ED
:103BA0009E04823008F45FC0B12C80919E04B81648
:103BB00008F059C080919A048C3009F454C0E09107
:103BC000A004F091A104138615861486128611862E
:103BD000108617821682158214821382712CBE0100
:103BE0006F5F7F4F8091A0049091A1040E94CA0F43
:103BF000882329F0B71461F17394B71480F7898191
:103C0000803179F1CE0101960E94AA0B90919A041D
:103C1000981710F480939A04B394C7CF80919804B6
:103C2000882329F060E0809199040E94700564E186
:103C300070E080E090E00E94520780919804882311
:103C400009F4A5CF61E0809199040E9470059FCF8F
:103C500067E0CE0101960E94430A98858913CCCF74
:103C6000CECF8CE0D3CFFFEF8F1A9F0A28E0C20E91
:103C7000D11C17CF8091A0049091A1040E94000B49
:103C800040E06CEC8091A0049091A1040E94AD0AE8
:103C90004091970464E48091A0049091A1040E9453
:103CA000AD0A80919B048823F9F080919C048823BD
:103CB00079F18091970481112BC00E9485072B0117
:103CC0003C018091A0049091A1040E945A0A813085
:103CD00059F00E94850764197509860997096E3E97
:103CE00072408105910568F387E791E00E94190C05
:103CF000BE016F5F7F4F86EC94E00E94380B81110C
:103D00002FC0412C512C8EEF682E82EC782E69C08A
:103D1000E0919A04E9508EEE92E0E33038F4F0E05E
:103D2000EE0FFF1FE85FFE4F808191812C01712C07
:103D3000612C80919804882329F060E08091990497
:103D40000E947005C301B2010E945207809198043D
:103D5000882351F261E0809199040E947005C4CFDC
:103D60006A8170E0762F6627770F770F770F2981AA
:103D700058E0259F90011124262B372B8091C604F3
:103D80008031E1F468856623C9F070E08F81FB0122
:103D9000E81BF109CF019695982F8827979587956D
:103DA0000E946A21CB018097B90153E0660F771F0B
:103DB0005A95E1F760789C01260F371F2138F4EE01
:103DC0003F070CF49ECFB901330F880B990B0E946B
:103DD0001D2020E030E040E05CE30E947C202B01CD
:103DE0003C0160E085E00E94700520E030E04AEF91
:103DF00052E4C301B2010E94162087FF18C020E0E0
:103E000030E040E252ECC301B2010E94CF2218160A
:103E100074F420E030E040E251E4C301B2010E94BA
:103E20007C200E9499227093D9036093D80381E487
:103E300080937C0080917A00806480937A008091E6
:103E40007A0086FDFCCF8091780060917900762F12
:103E5000682F072E000C880B990B0E941D2026E26C
:103E600034EE43E05DE30E947C200E94992270932F
:103E7000DD036093DC03809107038823C1F1809107
:103E800064008F77809364000E945A0F29833A83DD
:103E90004B835C836D837E8369817A81072E000C5E
:103EA000880B990B0E941D202DEC3CEC4CEC5DE343
:103EB0000E947C200E9499227093D7036093D603BE
:103EC0006D817E8190E080E00E941B202DEC3CEC17
:103ED0004CEC5DE30E947C200E9499227093DB03EE
:103EE0006093DA038091640080688093640080911D
:103EF000C00480FF1CC0809164008B7F80936400AD
:103F00008EE190E00E94190C2091C1044091BD0403
:103F10006091BC048091BE040E94BB0D84E690E0D9
:103F20000E94190C809164008460809364008091E9
:103F3000C00481FF65C088E892E00E94EE0C809189
:103F4000D6039091D7030E94810D8EE892E00E94E3
:103F5000EE0C8091080390910903892B71F080E9A0
:103F600092E00E94EE0C8091D8039091D9030E94B8
:103F7000810D8EE892E00E94EE0C80910703882369
:103F800071F088E992E00E94EE0C8091DA03909142
:103F9000DB030E94810D8EE892E00E94EE0C82EA23
:103FA00092E00E94EE0C8091DC039091DD030E9470
:103FB000810D8091DE039091DF03A091E003B09129
:103FC000E103892B8A2B8B2B99F08EE892E00E94DB
:103FD000EE0C88EA92E00E94EE0C6091DE03709194
:103FE000DF038091E0039091E1034AE00E94F00C2E
:103FF0000E94D70C65E070E080E090E00E945207DC
:104000000E94850710920E0310920F031092100366
:10401000109211030115110509F4BFCC0E94D708B5
:10402000882309F4B8CC0E940000B5CC0E94582027
:1040300008F481E00895E89409C097FB3EF4909558
:104040008095709561957F4F8F4F9F4F9923A9F071
:10405000F92F96E9BB279395F69587957795679500
:10406000B795F111F8CFFAF4BB0F11F460FF1BC044
:104070006F5F7F4F8F4F9F4F16C0882311F096E9D7
:1040800011C0772321F09EE8872F762F05C0662385
:1040900071F096E8862F70E060E02AF09A95660F3E
:1040A000771F881FDAF7880F9695879597F90895F7
:1040B000990F0008550FAA0BE0E8FEEF1616170639
:1040C000E807F907C0F012161306E407F50798F0A1
:1040D000621B730B840B950B39F40A2661F0232BBA
:1040E000242B252B21F408950A2609F4A140A69536
:1040F0008FEF811D811D08950E948F200C94002157
:104100000E94F22038F00E94F92020F0952311F04F
:104110000C94E9200C94EF2011240C9434210E947B
:10412000112170F3959FC1F3950F50E0551F629FC9
:10413000F001729FBB27F00DB11D639FAA27F00D00
:10414000B11DAA1F649F6627B00DA11D661F829F27
:104150002227B00DA11D621F739FB00DA11D621F0C
:10416000839FA00D611D221F749F3327A00D611D29
:10417000231F849F600D211D822F762F6A2F11240B
:104180009F5750409AF0F1F088234AF0EE0FFF1F3E
:10419000BB1F661F771F881F91505040A9F79E3F95
:1041A000510580F00C94E9200C9434215F3FE4F336
:1041B000983ED4F3869577956795B795F795E795EB
:1041C0009F5FC1F7FE2B880F911D9695879597F9F4
:1041D000089597F99F6780E870E060E008959FEF89
:1041E00080EC089500240A9416161706180609068E
:1041F000089500240A94121613061406050608955D
:10420000092E0394000C11F4882352F0BB0F40F4E4
:10421000BF2B11F460FF04C06F5F7F4F8F4F9F4F24
:10422000089557FD9058440F551F59F05F3F71F0A6
:104230004795880F97FB991F61F09F3F79F087950D
:104240000895121613061406551FF2CF4695F1DF96
:1042500008C0161617061806991FF1CF8695710526
:10426000610508940895E894BB2766277727CB015A
:1042700097F90895F999FECF92BD81BDF89A9927D3
:1042800080B50895262FF999FECF1FBA92BD81BD42
:1042900020BD0FB6F894FA9AF99A0FBE01960895C8
:1042A0000E945B21A59F900DB49F900DA49F800D4F
:1042B000911D11240895A29FB001B39FC001A39F37
:1042C000700D811D1124911DB29F700D811D11244F
:1042D000911D089597FB072E16F4009407D077FDE3
:1042E00009D00E94A02107FC05D03EF4909581954D
:1042F0009F4F0895709561957F4F0895A1E21A2E02
:10430000AA1BBB1BFD010DC0AA1FBB1FEE1FFF1F79
:10431000A217B307E407F50720F0A21BB30BE40BC9
:10432000F50B661F771F881F991F1A9469F7609510
:104330007095809590959B01AC01BD01CF010895CA
:10434000AA1BBB1B51E107C0AA1FBB1FA617B707BB
:1043500010F0A61BB70B881F991F5A95A9F78095D7
:104360009095BC01CD010895EE0FFF1F0590F491CB
:10437000E02D09945058BB27AA270E94D2210C9403
:1043800000210E94F22038F00E94F92020F039F438
:104390009F3F19F426F40C94EF200EF4E095E7FB10
:1043A0000C94E920E92F0E94112158F3BA176207F3
:1043B00073078407950720F079F4A6F50C94332150
:1043C0000EF4E0950B2EBA2FA02D0B01B901900130
:1043D0000C01CA01A0011124FF27591B99F0593F74
:1043E00050F4503E68F11A16F040A22F232F342FBC
:1043F0004427585FF3CF469537952795A795F0400A
:104400005395C9F77EF41F16BA0B620B730B840B1E
:10441000BAF09150A1F0FF0FBB1F661F771F881FD6
:10442000C2F70EC0BA0F621F731F841F48F487952E
:1044300077956795B795F7959E3F08F0B0CF939520
:10444000880F08F09927EE0F9795879508950E9499
:104450003B220C9400210E94F92058F00E94F22087
:1044600040F029F45F3F29F00C94E92051110C949D
:1044700034210C94EF200E94112168F39923B1F3A9
:10448000552391F3951B550BBB27AA27621773077A
:10449000840738F09F5F5F4F220F331F441FAA1F0E
:1044A000A9F335D00E2E3AF0E0E832D091505040CA
:1044B000E695001CCAF72BD0FE2F29D0660F771F78
:1044C000881FBB1F261737074807AB07B0E809F05E
:1044D000BB0B802DBF01FF2793585F4F3AF09E3FE3
:1044E000510578F00C94E9200C9434215F3FE4F3FB
:1044F000983ED4F3869577956795B795F7959F5F26
:10450000C9F7880F911D9695879597F90895E1E071
:10451000660F771F881FBB1F621773078407BA07D0
:1045200020F0621B730B840BBA0BEE1F88F7E0952B
:1045300008950E94A0226894B1110C94342108952A
:104540000E94192188F09F5798F0B92F9927B751E9
:10455000B0F0E1F0660F771F881F991F1AF0BA9527
:10456000C9F714C0B13091F00E943321B1E0089531
:104570000C943321672F782F8827B85F39F0B93F23
:10458000CCF3869577956795B395D9F73EF49095DA
:104590008095709561957F4F8F4F9F4F08950E9432
:1045A000582008F48FEF08950E945820880B990B2B
:0645B0000895F894FFCF0E
:1045B600FCC9FA0F910791075E00BC007701000065
:1045C6000000EF04C204400A9804BB04A80499043E
:1045D600000000000D099207BF079109CB08CE071E
:1045E6002F080D0A006E616E00696E66006F7666B2
:1045F60000204E4F54005246206F6E005246206FE8
:1046060066660053657269616C206F6E0053657251
:1046160069616C206F666600206F6620004F7065CA
:104626006E456E657267794D6F6E69746F722E6F27
:10463600726700656D6F6E54482046573A205600E3
:10464600342E302E300A0D00496E69742052464DC4
:104656002E2E2E0052464D205374617274656400EE
:10466600496E74205349373032312E2E0053493764
:10467600303231204572726F720053493730323111
:1046860020537461727465642C2049443A200053A7
:10469600493730323120743A2000534937303231AD
:1046A60020683A20004E6F204453313842323000A1
:1046B600272B2B2B27207468656E205B456E74654F
:1046C600725D20666F7220636F6E666967206D6F1C
:1046D6006465002841726475696E6F2049444520FF
:1046E60053657269616C204D6F6E69746F723A2002
:1046F6006D616B6520737572652027426F74682043
:104706004E4C2026204352272069732073656C6522
:1047160063746564290077616974696E672035730F
:104726002E2E2E0070203D20002064426D00536125
:1047360076696E672E2E2E0074656D703A002C0019
:1047460074656D7065783A0068756D696469747929
:104756003A00626174743A0070756C73653A0000D1
:00000001FF
